20240507-21:35:21.405566000 : 8=FIX.4.2|9=95|35=A|34=1|49=CLIENT1|52=20240507-21:35:21.405|56=MARKETDATA|95=8|96=12345678|98=0|108=60|141=Y|10=048|
20240507-21:35:21.406351000 : 8=FIX.4.2|9=78|35=A|34=1|49=MARKETDATA|52=20240507-21:35:21.406|56=CLIENT1|98=0|108=60|141=Y|10=253|
20240507-21:35:22.404679000 : 8=FIX.4.2|9=68|35=V|34=2|49=CLIENT1|52=20240507-21:35:22.404|56=MARKETDATA|55=AAPl|10=174|
20240507-21:35:25.838118000 : 8=FIX.4.2|9=92|35=W|34=2|49=MARKETDATA|52=20240507-21:35:25.838|56=CLIENT1|55=AAPl|269=2|270=10001|271=501|10=002|
20240507-21:35:29.150840000 : 8=FIX.4.2|9=92|35=W|34=3|49=MARKETDATA|52=20240507-21:35:29.150|56=CLIENT1|55=AAPl|269=2|270=10002|271=502|10=252|
20240507-21:35:36.973858000 : 8=FIX.4.2|9=92|35=W|34=4|49=MARKETDATA|52=20240507-21:35:36.973|56=CLIENT1|55=AAPl|269=2|270=10003|271=503|10=010|
20240507-21:35:38.774375000 : 8=FIX.4.2|9=92|35=W|34=5|49=MARKETDATA|52=20240507-21:35:38.774|56=CLIENT1|55=AAPl|269=2|270=10004|271=504|10=014|
20240507-21:35:38.903303000 : 8=FIX.4.2|9=92|35=W|34=6|49=MARKETDATA|52=20240507-21:35:38.903|56=CLIENT1|55=AAPl|269=2|270=10005|271=505|10=011|
20240507-21:35:39.362663000 : 8=FIX.4.2|9=92|35=W|34=7|49=MARKETDATA|52=20240507-21:35:39.362|56=CLIENT1|55=AAPl|269=2|270=10006|271=506|10=014|
20240507-21:35:43.439904000 : 8=FIX.4.2|9=92|35=W|34=8|49=MARKETDATA|52=20240507-21:35:43.439|56=CLIENT1|55=AAPl|269=2|270=10007|271=507|10=017|
20240507-21:35:44.545725000 : 8=FIX.4.2|9=92|35=W|34=9|49=MARKETDATA|52=20240507-21:35:44.545|56=CLIENT1|55=AAPl|269=2|270=10008|271=508|10=019|
20240507-21:35:44.757462000 : 8=FIX.4.2|9=93|35=W|34=10|49=MARKETDATA|52=20240507-21:35:44.757|56=CLIENT1|55=AAPl|269=2|270=10009|271=509|10=067|
20240507-21:35:44.877975000 : 8=FIX.4.2|9=93|35=W|34=11|49=MARKETDATA|52=20240507-21:35:44.877|56=CLIENT1|55=AAPl|269=2|270=10010|271=510|10=055|
20240507-21:35:48.677016000 : 8=FIX.4.2|9=93|35=W|34=12|49=MARKETDATA|52=20240507-21:35:48.676|56=CLIENT1|55=AAPl|269=2|270=10011|271=511|10=059|
20240507-21:35:50.663204000 : 8=FIX.4.2|9=93|35=W|34=13|49=MARKETDATA|52=20240507-21:35:50.663|56=CLIENT1|55=AAPl|269=2|270=10012|271=512|10=051|
20240507-21:35:51.467254000 : 8=FIX.4.2|9=93|35=W|34=14|49=MARKETDATA|52=20240507-21:35:51.467|56=CLIENT1|55=AAPl|269=2|270=10013|271=513|10=057|
20240507-21:35:52.677355000 : 8=FIX.4.2|9=93|35=W|34=15|49=MARKETDATA|52=20240507-21:35:52.677|56=CLIENT1|55=AAPl|269=2|270=10014|271=514|10=064|
20240507-21:35:53.097409000 : 8=FIX.4.2|9=93|35=W|34=16|49=MARKETDATA|52=20240507-21:35:53.097|56=CLIENT1|55=AAPl|269=2|270=10015|271=515|10=064|
20240507-21:35:58.349921000 : 8=FIX.4.2|9=93|35=W|34=17|49=MARKETDATA|52=20240507-21:35:58.349|56=CLIENT1|55=AAPl|269=2|270=10016|271=516|10=072|
20240507-21:35:59.479524000 : 8=FIX.4.2|9=93|35=W|34=18|49=MARKETDATA|52=20240507-21:35:59.479|56=CLIENT1|55=AAPl|269=2|270=10017|271=517|10=080|
20240507-21:35:59.946077000 : 8=FIX.4.2|9=93|35=W|34=19|49=MARKETDATA|52=20240507-21:35:59.945|56=CLIENT1|55=AAPl|269=2|270=10018|271=518|10=081|
20240507-21:36:00.155404000 : 8=FIX.4.2|9=93|35=W|34=20|49=MARKETDATA|52=20240507-21:36:00.155|56=CLIENT1|55=AAPl|269=2|270=10019|271=519|10=055|
20240507-21:36:01.911372000 : 8=FIX.4.2|9=93|35=W|34=21|49=MARKETDATA|52=20240507-21:36:01.911|56=CLIENT1|55=AAPl|269=2|270=10020|271=520|10=041|
20240507-21:36:03.878829000 : 8=FIX.4.2|9=93|35=W|34=22|49=MARKETDATA|52=20240507-21:36:03.878|56=CLIENT1|55=AAPl|269=2|270=10021|271=521|10=058|
20240507-21:36:05.719508000 : 8=FIX.4.2|9=93|35=W|34=23|49=MARKETDATA|52=20240507-21:36:05.719|56=CLIENT1|55=AAPl|269=2|270=10022|271=522|10=057|
20240507-21:36:06.665183000 : 8=FIX.4.2|9=93|35=W|34=24|49=MARKETDATA|52=20240507-21:36:06.665|56=CLIENT1|55=AAPl|269=2|270=10023|271=523|10=061|
20240507-21:36:07.660515000 : 8=FIX.4.2|9=93|35=W|34=25|49=MARKETDATA|52=20240507-21:36:07.659|56=CLIENT1|55=AAPl|269=2|270=10024|271=524|10=068|
20240507-21:36:07.754650000 : 8=FIX.4.2|9=93|35=W|34=26|49=MARKETDATA|52=20240507-21:36:07.754|56=CLIENT1|55=AAPl|269=2|270=10025|271=525|10=067|
20240507-21:36:08.052807000 : 8=FIX.4.2|9=93|35=W|34=27|49=MARKETDATA|52=20240507-21:36:08.052|56=CLIENT1|55=AAPl|269=2|270=10026|271=526|10=062|
20240507-21:36:09.024505000 : 8=FIX.4.2|9=93|35=W|34=28|49=MARKETDATA|52=20240507-21:36:09.024|56=CLIENT1|55=AAPl|269=2|270=10025|271=525|10=061|
20240507-21:36:11.450571000 : 8=FIX.4.2|9=93|35=W|34=29|49=MARKETDATA|52=20240507-21:36:11.450|56=CLIENT1|55=AAPl|269=2|270=10024|271=524|10=056|
20240507-21:36:12.488053000 : 8=FIX.4.2|9=93|35=W|34=30|49=MARKETDATA|52=20240507-21:36:12.487|56=CLIENT1|55=AAPl|269=2|270=10023|271=523|10=057|
20240507-21:36:12.953033000 : 8=FIX.4.2|9=93|35=W|34=31|49=MARKETDATA|52=20240507-21:36:12.952|56=CLIENT1|55=AAPl|269=2|270=10022|271=522|10=053|
20240507-21:36:13.765832000 : 8=FIX.4.2|9=93|35=W|34=32|49=MARKETDATA|52=20240507-21:36:13.765|56=CLIENT1|55=AAPl|269=2|270=10021|271=521|10=055|
20240507-21:36:14.047720000 : 8=FIX.4.2|9=93|35=W|34=33|49=MARKETDATA|52=20240507-21:36:14.047|56=CLIENT1|55=AAPl|269=2|270=10020|271=520|10=048|
20240507-21:36:17.489507000 : 8=FIX.4.2|9=93|35=W|34=34|49=MARKETDATA|52=20240507-21:36:17.489|56=CLIENT1|55=AAPl|269=2|270=10019|271=519|10=078|
20240507-21:36:18.735520000 : 8=FIX.4.2|9=93|35=W|34=35|49=MARKETDATA|52=20240507-21:36:18.735|56=CLIENT1|55=AAPl|269=2|270=10018|271=518|10=072|
20240507-21:36:19.028725000 : 8=FIX.4.2|9=93|35=W|34=36|49=MARKETDATA|52=20240507-21:36:19.028|56=CLIENT1|55=AAPl|269=2|270=10017|271=517|10=067|
20240507-21:36:21.643120000 : 8=FIX.4.2|9=93|35=W|34=37|49=MARKETDATA|52=20240507-21:36:21.643|56=CLIENT1|55=AAPl|269=2|270=10016|271=516|10=062|
20240507-21:36:22.644762000 : 8=FIX.4.2|9=60|35=0|34=3|49=CLIENT1|52=20240507-21:36:22.644|56=MARKETDATA|10=162|
20240507-21:36:27.239749000 : 8=FIX.4.2|9=93|35=W|34=38|49=MARKETDATA|52=20240507-21:36:27.239|56=CLIENT1|55=AAPl|269=2|270=10015|271=515|10=068|
20240507-21:36:28.076974000 : 8=FIX.4.2|9=93|35=W|34=39|49=MARKETDATA|52=20240507-21:36:28.076|56=CLIENT1|55=AAPl|269=2|270=10014|271=514|10=067|
20240507-21:36:31.384613000 : 8=FIX.4.2|9=93|35=W|34=40|49=MARKETDATA|52=20240507-21:36:31.384|56=CLIENT1|55=AAPl|269=2|270=10013|271=513|10=053|
20240507-21:36:32.489178000 : 8=FIX.4.2|9=93|35=W|34=41|49=MARKETDATA|52=20240507-21:36:32.489|56=CLIENT1|55=AAPl|269=2|270=10012|271=512|10=059|
20240507-21:36:33.736424000 : 8=FIX.4.2|9=93|35=W|34=42|49=MARKETDATA|52=20240507-21:36:33.736|56=CLIENT1|55=AAPl|269=2|270=10014|271=514|10=060|
20240507-21:36:33.759564000 : 8=FIX.4.2|9=93|35=W|34=43|49=MARKETDATA|52=20240507-21:36:33.759|56=CLIENT1|55=AAPl|269=2|270=10016|271=516|10=070|
20240507-21:36:33.827197000 : 8=FIX.4.2|9=93|35=W|34=44|49=MARKETDATA|52=20240507-21:36:33.827|56=CLIENT1|55=AAPl|269=2|270=10018|271=518|10=071|
20240507-21:36:36.387566000 : 8=FIX.4.2|9=93|35=W|34=45|49=MARKETDATA|52=20240507-21:36:36.387|56=CLIENT1|55=AAPl|269=2|270=10020|271=520|10=062|
20240507-21:36:36.581772000 : 8=FIX.4.2|9=93|35=W|34=46|49=MARKETDATA|52=20240507-21:36:36.581|56=CLIENT1|55=AAPl|269=2|270=10022|271=522|10=063|
20240507-21:36:36.768254000 : 8=FIX.4.2|9=93|35=W|34=47|49=MARKETDATA|52=20240507-21:36:36.768|56=CLIENT1|55=AAPl|269=2|270=10024|271=524|10=075|
20240507-21:36:39.114132000 : 8=FIX.4.2|9=93|35=W|34=48|49=MARKETDATA|52=20240507-21:36:39.114|56=CLIENT1|55=AAPl|269=2|270=10026|271=526|10=068|
20240507-21:36:41.417072000 : 8=FIX.4.2|9=93|35=W|34=49|49=MARKETDATA|52=20240507-21:36:41.417|56=CLIENT1|55=AAPl|269=2|270=10028|271=528|10=072|
20240507-21:36:41.435596000 : 8=FIX.4.2|9=93|35=W|34=50|49=MARKETDATA|52=20240507-21:36:41.435|56=CLIENT1|55=AAPl|269=2|270=10030|271=530|10=050|
20240507-21:36:41.482144000 : 8=FIX.4.2|9=93|35=W|34=51|49=MARKETDATA|52=20240507-21:36:41.482|56=CLIENT1|55=AAPl|269=2|270=10032|271=532|10=057|
20240507-21:36:42.688523000 : 8=FIX.4.2|9=93|35=W|34=52|49=MARKETDATA|52=20240507-21:36:42.688|56=CLIENT1|55=AAPl|269=2|270=10034|271=534|10=071|
20240507-21:36:42.821858000 : 8=FIX.4.2|9=93|35=W|34=53|49=MARKETDATA|52=20240507-21:36:42.821|56=CLIENT1|55=AAPl|269=2|270=10036|271=536|10=065|
20240507-21:36:44.767512000 : 8=FIX.4.2|9=93|35=W|34=54|49=MARKETDATA|52=20240507-21:36:44.767|56=CLIENT1|55=AAPl|269=2|270=10038|271=538|10=081|
20240507-21:36:45.852465000 : 8=FIX.4.2|9=93|35=W|34=55|49=MARKETDATA|52=20240507-21:36:45.852|56=CLIENT1|55=AAPl|269=2|270=10037|271=537|10=076|
20240507-21:36:46.928780000 : 8=FIX.4.2|9=93|35=W|34=56|49=MARKETDATA|52=20240507-21:36:46.928|56=CLIENT1|55=AAPl|269=2|270=10036|271=536|10=080|
20240507-21:36:47.845959000 : 8=FIX.4.2|9=93|35=W|34=57|49=MARKETDATA|52=20240507-21:36:47.845|56=CLIENT1|55=AAPl|269=2|270=10035|271=535|10=078|
20240507-21:36:48.096696000 : 8=FIX.4.2|9=93|35=W|34=58|49=MARKETDATA|52=20240507-21:36:48.096|56=CLIENT1|55=AAPl|269=2|270=10034|271=534|10=076|
20240507-21:36:51.287129000 : 8=FIX.4.2|9=93|35=W|34=59|49=MARKETDATA|52=20240507-21:36:51.287|56=CLIENT1|55=AAPl|269=2|270=10033|271=533|10=071|
20240507-21:36:53.079254000 : 8=FIX.4.2|9=93|35=W|34=60|49=MARKETDATA|52=20240507-21:36:53.079|56=CLIENT1|55=AAPl|269=2|270=10032|271=532|10=062|
20240507-21:36:54.966618000 : 8=FIX.4.2|9=93|35=W|34=61|49=MARKETDATA|52=20240507-21:36:54.966|56=CLIENT1|55=AAPl|269=2|270=10031|271=531|10=067|
20240507-21:36:56.103444000 : 8=FIX.4.2|9=93|35=W|34=62|49=MARKETDATA|52=20240507-21:36:56.103|56=CLIENT1|55=AAPl|269=2|270=10030|271=530|10=051|
20240507-21:36:57.068646000 : 8=FIX.4.2|9=93|35=W|34=63|49=MARKETDATA|52=20240507-21:36:57.068|56=CLIENT1|55=AAPl|269=2|270=10029|271=529|10=079|
20240507-21:36:57.452978000 : 8=FIX.4.2|9=93|35=W|34=64|49=MARKETDATA|52=20240507-21:36:57.452|56=CLIENT1|55=AAPl|269=2|270=10028|271=528|10=075|
20240507-21:36:59.936862000 : 8=FIX.4.2|9=93|35=W|34=65|49=MARKETDATA|52=20240507-21:36:59.936|56=CLIENT1|55=AAPl|269=2|270=10027|271=527|10=083|
20240507-21:36:59.941861000 : 8=FIX.4.2|9=93|35=W|34=66|49=MARKETDATA|52=20240507-21:36:59.941|56=CLIENT1|55=AAPl|269=2|270=10026|271=526|10=078|
20240507-21:37:02.403760000 : 8=FIX.4.2|9=93|35=W|34=67|49=MARKETDATA|52=20240507-21:37:02.403|56=CLIENT1|55=AAPl|269=2|270=10025|271=525|10=059|
20240507-21:37:02.896965000 : 8=FIX.4.2|9=93|35=W|34=68|49=MARKETDATA|52=20240507-21:37:02.896|56=CLIENT1|55=AAPl|269=2|270=10024|271=524|10=074|
20240507-21:37:02.928581000 : 8=FIX.4.2|9=93|35=W|34=69|49=MARKETDATA|52=20240507-21:37:02.928|56=CLIENT1|55=AAPl|269=2|270=10026|271=526|10=075|
