20240507-21:35:21.405546000 : 8=FIX.4.2|9=93|35=A|34=1|49=CLIENT1|52=20240507-21:35:21.405|56=EXECUTOR|95=8|96=12345678|98=0|108=60|141=Y|10=191|
20240507-21:35:21.406463000 : 8=FIX.4.2|9=76|35=A|34=1|49=EXECUTOR|52=20240507-21:35:21.406|56=CLIENT1|98=0|108=60|141=Y|10=140|
20240507-21:35:38.774723000 : 8=FIX.4.2|9=121|35=D|34=2|49=CLIENT1|52=20240507-21:35:38.774|56=EXECUTOR|11=1|21=1|38=1|40=2|44=10004|54=1|55=AAPl|60=20240507-21:35:38|10=055|
20240507-21:35:38.775205000 : 8=FIX.4.2|9=140|35=8|34=2|49=EXECUTOR|52=20240507-21:35:38.775|56=CLIENT1|6=10004|11=1|14=1|17=1|20=0|31=10004|32=1|37=1|38=1|39=2|54=1|55=AAPl|150=2|151=0|10=236|
20240507-21:35:38.903636000 : 8=FIX.4.2|9=121|35=D|34=3|49=CLIENT1|52=20240507-21:35:38.903|56=EXECUTOR|11=2|21=1|38=1|40=2|44=10005|54=1|55=AAPl|60=20240507-21:35:38|10=052|
20240507-21:35:38.903943000 : 8=FIX.4.2|9=140|35=8|34=3|49=EXECUTOR|52=20240507-21:35:38.903|56=CLIENT1|6=10005|11=2|14=1|17=2|20=0|31=10005|32=1|37=2|38=1|39=2|54=1|55=AAPl|150=2|151=0|10=235|
20240507-21:35:39.363034000 : 8=FIX.4.2|9=121|35=D|34=4|49=CLIENT1|52=20240507-21:35:39.362|56=EXECUTOR|11=3|21=1|38=1|40=2|44=10006|54=1|55=AAPl|60=20240507-21:35:39|10=056|
20240507-21:35:39.363309000 : 8=FIX.4.2|9=140|35=8|34=4|49=EXECUTOR|52=20240507-21:35:39.363|56=CLIENT1|6=10006|11=3|14=1|17=3|20=0|31=10006|32=1|37=3|38=1|39=2|54=1|55=AAPl|150=2|151=0|10=242|
20240507-21:36:12.488413000 : 8=FIX.4.2|9=121|35=D|34=5|49=CLIENT1|52=20240507-21:36:12.488|56=EXECUTOR|11=4|21=1|38=1|40=2|44=10023|54=2|55=AAPl|60=20240507-21:36:12|10=051|
20240507-21:36:12.488730000 : 8=FIX.4.2|9=140|35=8|34=5|49=EXECUTOR|52=20240507-21:36:12.488|56=CLIENT1|6=10023|11=4|14=1|17=4|20=0|31=10023|32=1|37=4|38=1|39=2|54=2|55=AAPl|150=2|151=0|10=245|
20240507-21:36:12.954000000 : 8=FIX.4.2|9=121|35=D|34=6|49=CLIENT1|52=20240507-21:36:12.953|56=EXECUTOR|11=5|21=1|38=1|40=2|44=10022|54=2|55=AAPl|60=20240507-21:36:12|10=049|
20240507-21:36:12.954313000 : 8=FIX.4.2|9=140|35=8|34=6|49=EXECUTOR|52=20240507-21:36:12.954|56=CLIENT1|6=10022|11=5|14=1|17=5|20=0|31=10022|32=1|37=5|38=1|39=2|54=2|55=AAPl|150=2|151=0|10=245|
20240507-21:36:13.766200000 : 8=FIX.4.2|9=121|35=D|34=7|49=CLIENT1|52=20240507-21:36:13.766|56=EXECUTOR|11=6|21=1|38=1|40=2|44=10021|54=2|55=AAPl|60=20240507-21:36:13|10=054|
20240507-21:36:13.766505000 : 8=FIX.4.2|9=140|35=8|34=7|49=EXECUTOR|52=20240507-21:36:13.766|56=CLIENT1|6=10021|11=6|14=1|17=6|20=0|31=10021|32=1|37=6|38=1|39=2|54=2|55=AAPl|150=2|151=0|10=249|
20240507-21:36:14.048082000 : 8=FIX.4.2|9=121|35=D|34=8|49=CLIENT1|52=20240507-21:36:14.048|56=EXECUTOR|11=7|21=1|38=1|40=2|44=10020|54=2|55=AAPl|60=20240507-21:36:14|10=050|
20240507-21:36:14.048471000 : 8=FIX.4.2|9=140|35=8|34=8|49=EXECUTOR|52=20240507-21:36:14.048|56=CLIENT1|6=10020|11=7|14=1|17=7|20=0|31=10020|32=1|37=7|38=1|39=2|54=2|55=AAPl|150=2|151=0|10=245|
20240507-21:36:17.489839000 : 8=FIX.4.2|9=121|35=D|34=9|49=CLIENT1|52=20240507-21:36:17.489|56=EXECUTOR|11=8|21=1|38=1|40=2|44=10019|54=2|55=AAPl|60=20240507-21:36:17|10=075|
20240507-21:36:17.490149000 : 8=FIX.4.2|9=140|35=8|34=9|49=EXECUTOR|52=20240507-21:36:17.490|56=CLIENT1|6=10019|11=8|14=1|17=8|20=0|31=10019|32=1|37=8|38=1|39=2|54=2|55=AAPl|150=2|151=0|10=013|
20240507-21:36:18.735885000 : 8=FIX.4.2|9=122|35=D|34=10|49=CLIENT1|52=20240507-21:36:18.735|56=EXECUTOR|11=9|21=1|38=1|40=2|44=10018|54=2|55=AAPl|60=20240507-21:36:18|10=112|
20240507-21:36:18.736234000 : 8=FIX.4.2|9=141|35=8|34=10|49=EXECUTOR|52=20240507-21:36:18.736|56=CLIENT1|6=10018|11=9|14=1|17=9|20=0|31=10018|32=1|37=9|38=1|39=2|54=2|55=AAPl|150=2|151=0|10=059|
20240507-21:36:33.759953000 : 8=FIX.4.2|9=123|35=D|34=11|49=CLIENT1|52=20240507-21:36:33.759|56=EXECUTOR|11=10|21=1|38=1|40=2|44=10016|54=1|55=AAPl|60=20240507-21:36:33|10=151|
20240507-21:36:33.760335000 : 8=FIX.4.2|9=144|35=8|34=11|49=EXECUTOR|52=20240507-21:36:33.760|56=CLIENT1|6=10016|11=10|14=1|17=10|20=0|31=10016|32=1|37=10|38=1|39=2|54=1|55=AAPl|150=2|151=0|10=172|
20240507-21:36:33.827543000 : 8=FIX.4.2|9=123|35=D|34=12|49=CLIENT1|52=20240507-21:36:33.827|56=EXECUTOR|11=11|21=1|38=1|40=2|44=10018|54=1|55=AAPl|60=20240507-21:36:33|10=151|
20240507-21:36:33.827917000 : 8=FIX.4.2|9=144|35=8|34=12|49=EXECUTOR|52=20240507-21:36:33.827|56=CLIENT1|6=10018|11=11|14=1|17=11|20=0|31=10018|32=1|37=11|38=1|39=2|54=1|55=AAPl|150=2|151=0|10=184|
20240507-21:36:36.387897000 : 8=FIX.4.2|9=123|35=D|34=13|49=CLIENT1|52=20240507-21:36:36.387|56=EXECUTOR|11=12|21=1|38=1|40=2|44=10020|54=1|55=AAPl|60=20240507-21:36:36|10=153|
20240507-21:36:36.388222000 : 8=FIX.4.2|9=144|35=8|34=13|49=EXECUTOR|52=20240507-21:36:36.388|56=CLIENT1|6=10020|11=12|14=1|17=12|20=0|31=10020|32=1|37=12|38=1|39=2|54=1|55=AAPl|150=2|151=0|10=179|
20240507-21:36:36.582140000 : 8=FIX.4.2|9=123|35=D|34=14|49=CLIENT1|52=20240507-21:36:36.582|56=EXECUTOR|11=13|21=1|38=1|40=2|44=10022|54=1|55=AAPl|60=20240507-21:36:36|10=154|
20240507-21:36:36.582420000 : 8=FIX.4.2|9=144|35=8|34=14|49=EXECUTOR|52=20240507-21:36:36.582|56=CLIENT1|6=10022|11=13|14=1|17=13|20=0|31=10022|32=1|37=13|38=1|39=2|54=1|55=AAPl|150=2|151=0|10=183|
20240507-21:36:36.768612000 : 8=FIX.4.2|9=123|35=D|34=15|49=CLIENT1|52=20240507-21:36:36.768|56=EXECUTOR|11=14|21=1|38=1|40=2|44=10024|54=1|55=AAPl|60=20240507-21:36:36|10=164|
20240507-21:36:36.768932000 : 8=FIX.4.2|9=144|35=8|34=15|49=EXECUTOR|52=20240507-21:36:36.768|56=CLIENT1|6=10024|11=14|14=1|17=14|20=0|31=10024|32=1|37=14|38=1|39=2|54=1|55=AAPl|150=2|151=0|10=197|
20240507-21:36:39.114485000 : 8=FIX.4.2|9=123|35=D|34=16|49=CLIENT1|52=20240507-21:36:39.114|56=EXECUTOR|11=15|21=1|38=1|40=2|44=10026|54=1|55=AAPl|60=20240507-21:36:39|10=159|
20240507-21:36:39.114793000 : 8=FIX.4.2|9=144|35=8|34=16|49=EXECUTOR|52=20240507-21:36:39.114|56=CLIENT1|6=10026|11=15|14=1|17=15|20=0|31=10026|32=1|37=15|38=1|39=2|54=1|55=AAPl|150=2|151=0|10=193|
20240507-21:36:47.846239000 : 8=FIX.4.2|9=123|35=D|34=17|49=CLIENT1|52=20240507-21:36:47.846|56=EXECUTOR|11=16|21=1|38=1|40=2|44=10035|54=2|55=AAPl|60=20240507-21:36:47|10=172|
20240507-21:36:47.846560000 : 8=FIX.4.2|9=144|35=8|34=17|49=EXECUTOR|52=20240507-21:36:47.846|56=CLIENT1|6=10035|11=16|14=1|17=16|20=0|31=10035|32=1|37=16|38=1|39=2|54=2|55=AAPl|150=2|151=0|10=209|
20240507-21:36:48.096985000 : 8=FIX.4.2|9=123|35=D|34=18|49=CLIENT1|52=20240507-21:36:48.096|56=EXECUTOR|11=17|21=1|38=1|40=2|44=10034|54=2|55=AAPl|60=20240507-21:36:48|10=172|
20240507-21:36:48.097303000 : 8=FIX.4.2|9=144|35=8|34=18|49=EXECUTOR|52=20240507-21:36:48.097|56=CLIENT1|6=10034|11=17|14=1|17=17|20=0|31=10034|32=1|37=17|38=1|39=2|54=2|55=AAPl|150=2|151=0|10=210|
20240507-21:36:51.287433000 : 8=FIX.4.2|9=123|35=D|34=19|49=CLIENT1|52=20240507-21:36:51.287|56=EXECUTOR|11=18|21=1|38=1|40=2|44=10033|54=2|55=AAPl|60=20240507-21:36:51|10=163|
20240507-21:36:51.287774000 : 8=FIX.4.2|9=144|35=8|34=19|49=EXECUTOR|52=20240507-21:36:51.287|56=CLIENT1|6=10033|11=18|14=1|17=18|20=0|31=10033|32=1|37=18|38=1|39=2|54=2|55=AAPl|150=2|151=0|10=207|
20240507-21:36:53.079531000 : 8=FIX.4.2|9=123|35=D|34=20|49=CLIENT1|52=20240507-21:36:53.079|56=EXECUTOR|11=19|21=1|38=1|40=2|44=10032|54=2|55=AAPl|60=20240507-21:36:53|10=158|
20240507-21:36:53.079898000 : 8=FIX.4.2|9=144|35=8|34=20|49=EXECUTOR|52=20240507-21:36:53.079|56=CLIENT1|6=10032|11=19|14=1|17=19|20=0|31=10032|32=1|37=19|38=1|39=2|54=2|55=AAPl|150=2|151=0|10=201|
20240507-21:36:54.966906000 : 8=FIX.4.2|9=123|35=D|34=21|49=CLIENT1|52=20240507-21:36:54.966|56=EXECUTOR|11=20|21=1|38=1|40=2|44=10031|54=2|55=AAPl|60=20240507-21:36:54|10=157|
20240507-21:36:54.967245000 : 8=FIX.4.2|9=144|35=8|34=21|49=EXECUTOR|52=20240507-21:36:54.967|56=CLIENT1|6=10031|11=20|14=1|17=20|20=0|31=10031|32=1|37=20|38=1|39=2|54=2|55=AAPl|150=2|151=0|10=183|
20240507-21:36:56.103709000 : 8=FIX.4.2|9=123|35=D|34=22|49=CLIENT1|52=20240507-21:36:56.103|56=EXECUTOR|11=21|21=1|38=1|40=2|44=10030|54=2|55=AAPl|60=20240507-21:36:56|10=145|
20240507-21:36:56.104042000 : 8=FIX.4.2|9=144|35=8|34=22|49=EXECUTOR|52=20240507-21:36:56.103|56=CLIENT1|6=10030|11=21|14=1|17=21|20=0|31=10030|32=1|37=21|38=1|39=2|54=2|55=AAPl|150=2|151=0|10=169|
